{
    "contractName": "IdiancBattles",
    "abi": [
        {
            "inputs": [],
            "stateMutability": "nonpayable",
            "type": "constructor"
        },
        {
            "anonymous": false,
            "inputs": [
                {
                    "indexed": true,
                    "internalType": "address",
                    "name": "owner",
                    "type": "address"
                },
                {
                    "indexed": true,
                    "internalType": "address",
                    "name": "approved",
                    "type": "address"
                },
                {
                    "indexed": true,
                    "internalType": "uint256",
                    "name": "tokenId",
                    "type": "uint256"
                }
            ],
            "name": "Approval",
            "type": "event"
        },
        {
            "anonymous": false,
            "inputs": [
                {
                    "indexed": true,
                    "internalType": "address",
                    "name": "owner",
                    "type": "address"
                },
                {
                    "indexed": true,
                    "internalType": "address",
                    "name": "operator",
                    "type": "address"
                },
                {
                    "indexed": false,
                    "internalType": "bool",
                    "name": "approved",
                    "type": "bool"
                }
            ],
            "name": "ApprovalForAll",
            "type": "event"
        },
        {
            "anonymous": false,
            "inputs": [
                {
                    "indexed": false,
                    "internalType": "uint256",
                    "name": "_fromTokenId",
                    "type": "uint256"
                },
                {
                    "indexed": false,
                    "internalType": "uint256",
                    "name": "_toTokenId",
                    "type": "uint256"
                }
            ],
            "name": "BatchMetadataUpdate",
            "type": "event"
        },
        {
            "anonymous": false,
            "inputs": [
                {
                    "indexed": false,
                    "internalType": "uint256",
                    "name": "_tokenId",
                    "type": "uint256"
                }
            ],
            "name": "MetadataUpdate",
            "type": "event"
        },
        {
            "anonymous": false,
            "inputs": [
                {
                    "indexed": true,
                    "internalType": "address",
                    "name": "from",
                    "type": "address"
                },
                {
                    "indexed": true,
                    "internalType": "address",
                    "name": "to",
                    "type": "address"
                },
                {
                    "indexed": true,
                    "internalType": "uint256",
                    "name": "tokenId",
                    "type": "uint256"
                }
            ],
            "name": "Transfer",
            "type": "event"
        },
        {
            "inputs": [
                {
                    "internalType": "address",
                    "name": "to",
                    "type": "address"
                },
                {
                    "internalType": "uint256",
                    "name": "tokenId",
                    "type": "uint256"
                }
            ],
            "name": "approve",
            "outputs": [],
            "stateMutability": "nonpayable",
            "type": "function"
        },
        {
            "inputs": [
                {
                    "internalType": "address",
                    "name": "owner",
                    "type": "address"
                }
            ],
            "name": "balanceOf",
            "outputs": [
                {
                    "internalType": "uint256",
                    "name": "",
                    "type": "uint256"
                }
            ],
            "stateMutability": "view",
            "type": "function"
        },
        {
            "inputs": [
                {
                    "internalType": "uint256",
                    "name": "tokenId",
                    "type": "uint256"
                }
            ],
            "name": "generateCharacter",
            "outputs": [
                {
                    "internalType": "string",
                    "name": "",
                    "type": "string"
                }
            ],
            "stateMutability": "view",
            "type": "function"
        },
        {
            "inputs": [
                {
                    "internalType": "uint256",
                    "name": "tokenId",
                    "type": "uint256"
                }
            ],
            "name": "getApproved",
            "outputs": [
                {
                    "internalType": "address",
                    "name": "",
                    "type": "address"
                }
            ],
            "stateMutability": "view",
            "type": "function"
        },
        {
            "inputs": [
                {
                    "internalType": "uint256",
                    "name": "tokenId",
                    "type": "uint256"
                }
            ],
            "name": "getLevels",
            "outputs": [
                {
                    "internalType": "string",
                    "name": "",
                    "type": "string"
                }
            ],
            "stateMutability": "view",
            "type": "function"
        },
        {
            "inputs": [
                {
                    "internalType": "uint256",
                    "name": "tokenId",
                    "type": "uint256"
                }
            ],
            "name": "getTokenURI",
            "outputs": [
                {
                    "internalType": "string",
                    "name": "",
                    "type": "string"
                }
            ],
            "stateMutability": "view",
            "type": "function"
        },
        {
            "inputs": [
                {
                    "internalType": "address",
                    "name": "owner",
                    "type": "address"
                },
                {
                    "internalType": "address",
                    "name": "operator",
                    "type": "address"
                }
            ],
            "name": "isApprovedForAll",
            "outputs": [
                {
                    "internalType": "bool",
                    "name": "",
                    "type": "bool"
                }
            ],
            "stateMutability": "view",
            "type": "function"
        },
        {
            "inputs": [],
            "name": "mint",
            "outputs": [],
            "stateMutability": "nonpayable",
            "type": "function"
        },
        {
            "inputs": [],
            "name": "name",
            "outputs": [
                {
                    "internalType": "string",
                    "name": "",
                    "type": "string"
                }
            ],
            "stateMutability": "view",
            "type": "function"
        },
        {
            "inputs": [
                {
                    "internalType": "uint256",
                    "name": "tokenId",
                    "type": "uint256"
                }
            ],
            "name": "ownerOf",
            "outputs": [
                {
                    "internalType": "address",
                    "name": "",
                    "type": "address"
                }
            ],
            "stateMutability": "view",
            "type": "function"
        },
        {
            "inputs": [
                {
                    "internalType": "address",
                    "name": "from",
                    "type": "address"
                },
                {
                    "internalType": "address",
                    "name": "to",
                    "type": "address"
                },
                {
                    "internalType": "uint256",
                    "name": "tokenId",
                    "type": "uint256"
                }
            ],
            "name": "safeTransferFrom",
            "outputs": [],
            "stateMutability": "nonpayable",
            "type": "function"
        },
        {
            "inputs": [
                {
                    "internalType": "address",
                    "name": "from",
                    "type": "address"
                },
                {
                    "internalType": "address",
                    "name": "to",
                    "type": "address"
                },
                {
                    "internalType": "uint256",
                    "name": "tokenId",
                    "type": "uint256"
                },
                {
                    "internalType": "bytes",
                    "name": "data",
                    "type": "bytes"
                }
            ],
            "name": "safeTransferFrom",
            "outputs": [],
            "stateMutability": "nonpayable",
            "type": "function"
        },
        {
            "inputs": [
                {
                    "internalType": "address",
                    "name": "operator",
                    "type": "address"
                },
                {
                    "internalType": "bool",
                    "name": "approved",
                    "type": "bool"
                }
            ],
            "name": "setApprovalForAll",
            "outputs": [],
            "stateMutability": "nonpayable",
            "type": "function"
        },
        {
            "inputs": [
                {
                    "internalType": "bytes4",
                    "name": "interfaceId",
                    "type": "bytes4"
                }
            ],
            "name": "supportsInterface",
            "outputs": [
                {
                    "internalType": "bool",
                    "name": "",
                    "type": "bool"
                }
            ],
            "stateMutability": "view",
            "type": "function"
        },
        {
            "inputs": [],
            "name": "symbol",
            "outputs": [
                {
                    "internalType": "string",
                    "name": "",
                    "type": "string"
                }
            ],
            "stateMutability": "view",
            "type": "function"
        },
        {
            "inputs": [
                {
                    "internalType": "uint256",
                    "name": "",
                    "type": "uint256"
                }
            ],
            "name": "tokenIdToLevels",
            "outputs": [
                {
                    "internalType": "uint256",
                    "name": "",
                    "type": "uint256"
                }
            ],
            "stateMutability": "view",
            "type": "function"
        },
        {
            "inputs": [
                {
                    "internalType": "uint256",
                    "name": "tokenId",
                    "type": "uint256"
                }
            ],
            "name": "tokenURI",
            "outputs": [
                {
                    "internalType": "string",
                    "name": "",
                    "type": "string"
                }
            ],
            "stateMutability": "view",
            "type": "function"
        },
        {
            "inputs": [
                {
                    "internalType": "uint256",
                    "name": "tokenId",
                    "type": "uint256"
                }
            ],
            "name": "train",
            "outputs": [],
            "stateMutability": "nonpayable",
            "type": "function"
        },
        {
            "inputs": [
                {
                    "internalType": "address",
                    "name": "from",
                    "type": "address"
                },
                {
                    "internalType": "address",
                    "name": "to",
                    "type": "address"
                },
                {
                    "internalType": "uint256",
                    "name": "tokenId",
                    "type": "uint256"
                }
            ],
            "name": "transferFrom",
            "outputs": [],
            "stateMutability": "nonpayable",
            "type": "function"
        }
    ],
    "bytecode": "60806040523480156200001157600080fd5b506040518060400160405280600e81526020016d496469616e6320426174746c657360901b815250604051806040016040528060058152602001644342544c5360d81b815250816000908162000068919062000125565b50600162000077828262000125565b505050620001f1565b634e487b7160e01b600052604160045260246000fd5b600181811c90821680620000ab57607f821691505b602082108103620000cc57634e487b7160e01b600052602260045260246000fd5b50919050565b601f8211156200012057600081815260208120601f850160051c81016020861015620000fb5750805b601f850160051c820191505b818110156200011c5782815560010162000107565b5050505b505050565b81516001600160401b0381111562000141576200014162000080565b620001598162000152845462000096565b84620000d2565b602080601f831160018114620001915760008415620001785750858301515b600019600386901b1c1916600185901b1785556200011c565b600085815260208120601f198616915b82811015620001c257888601518255948401946001909101908401620001a1565b5085821015620001e15787850151600019600388901b60f8161c191681555b5050505050600190811b01905550565b611e5c80620002016000396000f3fe608060405234801561001057600080fd5b50600436106101215760003560e01c806342842e0e116100ad578063b88d4fde11610071578063b88d4fde14610259578063c6a4342f1461026c578063c87b56dd1461028c578063e985e9c51461029f578063f43785f9146102b257600080fd5b806342842e0e146101f75780636352211e1461020a57806370a082311461021d57806395d89b411461023e578063a22cb4651461024657600080fd5b80630daefed5116100f45780630daefed5146101a35780631249c58b146101b657806323b872dd146101be578063368004ed146101d15780633bb3a24d146101e457600080fd5b806301ffc9a71461012657806306fdde031461014e578063081812fc14610163578063095ea7b31461018e575b600080fd5b61013961013436600461146d565b6102c5565b60405190151581526020015b60405180910390f35b6101566102f0565b60405161014591906114da565b6101766101713660046114ed565b610382565b6040516001600160a01b039091168152602001610145565b6101a161019c366004611522565b6103a9565b005b6101566101b13660046114ed565b6104c3565b6101a1610521565b6101a16101cc36600461154c565b61056a565b6101a16101df3660046114ed565b61059b565b6101566101f23660046114ed565b6106b4565b6101a161020536600461154c565b610705565b6101766102183660046114ed565b610720565b61023061022b366004611588565b610780565b604051908152602001610145565b610156610806565b6101a16102543660046115a3565b610815565b6101a16102673660046115f5565b610820565b61023061027a3660046114ed565b60086020526000908152604090205481565b61015661029a3660046114ed565b610858565b6101396102ad3660046116d1565b610968565b6101566102c03660046114ed565b610996565b60006001600160e01b03198216632483248360e11b14806102ea57506102ea826109b8565b92915050565b6060600080546102ff90611704565b80601f016020809104026020016040519081016040528092919081815260200182805461032b90611704565b80156103785780601f1061034d57610100808354040283529160200191610378565b820191906000526020600020905b81548152906001019060200180831161035b57829003601f168201915b5050505050905090565b600061038d82610a08565b506000908152600460205260409020546001600160a01b031690565b60006103b482610720565b9050806001600160a01b0316836001600160a01b0316036104265760405162461bcd60e51b815260206004820152602160248201527f4552433732313a20617070726f76616c20746f2063757272656e74206f776e656044820152603960f91b60648201526084015b60405180910390fd5b336001600160a01b038216148061044257506104428133610968565b6104b45760405162461bcd60e51b815260206004820152603d60248201527f4552433732313a20617070726f76652063616c6c6572206973206e6f7420746f60448201527f6b656e206f776e6572206f7220617070726f76656420666f7220616c6c000000606482015260840161041d565b6104be8383610a67565b505050565b606060006104d083610996565b6040516020016104e0919061175a565b60405160208183030381529060405290506104fa81610ad5565b60405160200161050a91906119b2565b604051602081830303815290604052915050919050565b61052f600780546001019055565b600061053a60075490565b90506105463382610c28565b60008181526008602052604081205561056781610562816106b4565b610c42565b50565b6105743382610d0d565b6105905760405162461bcd60e51b815260040161041d906119f7565b6104be838383610d6b565b6000818152600260205260409020546001600160a01b03166105ff5760405162461bcd60e51b815260206004820152601760248201527f546f6b656e20494420646f6573206e6f74206578697374000000000000000000604482015260640161041d565b3361060982610720565b6001600160a01b03161461067a5760405162461bcd60e51b815260206004820152603260248201527f596f7520617265206e6f7420746865206f776e6572206f66207468697320746f6044820152711ad95b8818d85b89dd081d1c985a5b881a5d60721b606482015260840161041d565b600081815260086020526040902054610694816001611a5a565b6000838152600860205260409020556106b082610562816106b4565b5050565b606060006106c183610ecf565b6106ca846104c3565b6040516020016106db929190611a6d565b60405160208183030381529060405290506106f581610ad5565b60405160200161050a9190611b3a565b6104be83838360405180602001604052806000815250610820565b6000818152600260205260408120546001600160a01b0316806102ea5760405162461bcd60e51b8152602060048201526018602482015277115490cdcc8c4e881a5b9d985b1a59081d1bdad95b88125160421b604482015260640161041d565b60006001600160a01b0382166107ea5760405162461bcd60e51b815260206004820152602960248201527f4552433732313a2061646472657373207a65726f206973206e6f7420612076616044820152683634b21037bbb732b960b91b606482015260840161041d565b506001600160a01b031660009081526003602052604090205490565b6060600180546102ff90611704565b6106b0338383610f62565b61082a3383610d0d565b6108465760405162461bcd60e51b815260040161041d906119f7565b61085284848484611030565b50505050565b606061086382610a08565b6000828152600660205260408120805461087c90611704565b80601f01602080910402602001604051908101604052809291908181526020018280546108a890611704565b80156108f55780601f106108ca576101008083540402835291602001916108f5565b820191906000526020600020905b8154815290600101906020018083116108d857829003601f168201915b50505050509050600061091360408051602081019091526000815290565b90508051600003610925575092915050565b81511561095757808260405160200161093f929190611b7f565b60405160208183030381529060405292505050919050565b61096084611063565b949350505050565b6001600160a01b03918216600090815260056020908152604080832093909416825291909152205460ff1690565b6000818152600860205260409020546060906109b181610ecf565b9392505050565b60006001600160e01b031982166380ac58cd60e01b14806109e957506001600160e01b03198216635b5e139f60e01b145b806102ea57506301ffc9a760e01b6001600160e01b03198316146102ea565b6000818152600260205260409020546001600160a01b03166105675760405162461bcd60e51b8152602060048201526018602482015277115490cdcc8c4e881a5b9d985b1a59081d1bdad95b88125160421b604482015260640161041d565b600081815260046020526040902080546001600160a01b0319166001600160a01b0384169081179091558190610a9c82610720565b6001600160a01b03167f8c5be1e5ebec7d5bd14f71427d1e84f3dd0314c0f7b2291e5b200ac8c7c3b92560405160405180910390a45050565b60608151600003610af457505060408051602081019091526000815290565b6000604051806060016040528060408152602001611de76040913990506000600384516002610b239190611a5a565b610b2d9190611bae565b610b38906004611bd0565b67ffffffffffffffff811115610b5057610b506115df565b6040519080825280601f01601f191660200182016040528015610b7a576020820181803683370190505b509050600182016020820185865187015b80821015610be6576003820191508151603f8160121c168501518453600184019350603f81600c1c168501518453600184019350603f8160061c168501518453600184019350603f8116850151845350600183019250610b8b565b5050600386510660018114610c025760028114610c1557610c1d565b603d6001830353603d6002830353610c1d565b603d60018303535b509195945050505050565b6106b08282604051806020016040528060008152506110c0565b6000828152600260205260409020546001600160a01b0316610cbd5760405162461bcd60e51b815260206004820152602e60248201527f45524337323155524953746f726167653a2055524920736574206f66206e6f6e60448201526d32bc34b9ba32b73a103a37b5b2b760911b606482015260840161041d565b6000828152600660205260409020610cd58282611c35565b506040518281527ff8e1a15aba9398e019f0b49df1a4fde98ee17ae345cb5f6b5e2c27f5033e8ce79060200160405180910390a15050565b600080610d1983610720565b9050806001600160a01b0316846001600160a01b03161480610d405750610d408185610968565b806109605750836001600160a01b0316610d5984610382565b6001600160a01b031614949350505050565b826001600160a01b0316610d7e82610720565b6001600160a01b031614610da45760405162461bcd60e51b815260040161041d90611cf5565b6001600160a01b038216610e065760405162461bcd60e51b8152602060048201526024808201527f4552433732313a207472616e7366657220746f20746865207a65726f206164646044820152637265737360e01b606482015260840161041d565b826001600160a01b0316610e1982610720565b6001600160a01b031614610e3f5760405162461bcd60e51b815260040161041d90611cf5565b600081815260046020908152604080832080546001600160a01b03199081169091556001600160a01b0387811680865260038552838620805460001901905590871680865283862080546001019055868652600290945282852080549092168417909155905184937fddf252ad1be2c89b69c2b068fc378daa952ba7f163c4a11628f55a4df523b3ef91a4505050565b60606000610edc836110f3565b600101905060008167ffffffffffffffff811115610efc57610efc6115df565b6040519080825280601f01601f191660200182016040528015610f26576020820181803683370190505b5090508181016020015b600019016f181899199a1a9b1b9c1cb0b131b232b360811b600a86061a8153600a8504945084610f3057509392505050565b816001600160a01b0316836001600160a01b031603610fc35760405162461bcd60e51b815260206004820152601960248201527f4552433732313a20617070726f766520746f2063616c6c657200000000000000604482015260640161041d565b6001600160a01b03838116600081815260056020908152604080832094871680845294825291829020805460ff191686151590811790915591519182527f17307eab39ab6107e8899845ad3d59bd9653f200f220920489ca2b5937696c31910160405180910390a3505050565b61103b848484610d6b565b611047848484846111cb565b6108525760405162461bcd60e51b815260040161041d90611d3a565b606061106e82610a08565b600061108560408051602081019091526000815290565b905060008151116110a557604051806020016040528060008152506109b1565b806110af84610ecf565b60405160200161050a929190611b7f565b6110ca83836112cc565b6110d760008484846111cb565b6104be5760405162461bcd60e51b815260040161041d90611d3a565b60008072184f03e93ff9f4daa797ed6e38ed64bf6a1f0160401b83106111325772184f03e93ff9f4daa797ed6e38ed64bf6a1f0160401b830492506040015b6d04ee2d6d415b85acef8100000000831061115e576d04ee2d6d415b85acef8100000000830492506020015b662386f26fc10000831061117c57662386f26fc10000830492506010015b6305f5e1008310611194576305f5e100830492506008015b61271083106111a857612710830492506004015b606483106111ba576064830492506002015b600a83106102ea5760010192915050565b60006001600160a01b0384163b156112c157604051630a85bd0160e11b81526001600160a01b0385169063150b7a029061120f903390899088908890600401611d8c565b6020604051808303816000875af192505050801561124a575060408051601f3d908101601f1916820190925261124791810190611dc9565b60015b6112a7573d808015611278576040519150601f19603f3d011682016040523d82523d6000602084013e61127d565b606091505b50805160000361129f5760405162461bcd60e51b815260040161041d90611d3a565b805181602001fd5b6001600160e01b031916630a85bd0160e11b149050610960565b506001949350505050565b6001600160a01b0382166113225760405162461bcd60e51b815260206004820181905260248201527f4552433732313a206d696e7420746f20746865207a65726f2061646472657373604482015260640161041d565b6000818152600260205260409020546001600160a01b0316156113875760405162461bcd60e51b815260206004820152601c60248201527f4552433732313a20746f6b656e20616c7265616479206d696e74656400000000604482015260640161041d565b6000818152600260205260409020546001600160a01b0316156113ec5760405162461bcd60e51b815260206004820152601c60248201527f4552433732313a20746f6b656e20616c7265616479206d696e74656400000000604482015260640161041d565b6001600160a01b038216600081815260036020908152604080832080546001019055848352600290915280822080546001600160a01b0319168417905551839291907fddf252ad1be2c89b69c2b068fc378daa952ba7f163c4a11628f55a4df523b3ef908290a45050565b6001600160e01b03198116811461056757600080fd5b60006020828403121561147f57600080fd5b81356109b181611457565b60005b838110156114a557818101518382015260200161148d565b50506000910152565b600081518084526114c681602086016020860161148a565b601f01601f19169290920160200192915050565b6020815260006109b160208301846114ae565b6000602082840312156114ff57600080fd5b5035919050565b80356001600160a01b038116811461151d57600080fd5b919050565b6000806040838503121561153557600080fd5b61153e83611506565b946020939093013593505050565b60008060006060848603121561156157600080fd5b61156a84611506565b925061157860208501611506565b9150604084013590509250925092565b60006020828403121561159a57600080fd5b6109b182611506565b600080604083850312156115b657600080fd5b6115bf83611506565b9150602083013580151581146115d457600080fd5b809150509250929050565b634e487b7160e01b600052604160045260246000fd5b6000806000806080858703121561160b57600080fd5b61161485611506565b935061162260208601611506565b925060408501359150606085013567ffffffffffffffff8082111561164657600080fd5b818701915087601f83011261165a57600080fd5b81358181111561166c5761166c6115df565b604051601f8201601f19908116603f01168101908382118183101715611694576116946115df565b816040528281528a60208487010111156116ad57600080fd5b82602086016020830137600060208483010152809550505050505092959194509250565b600080604083850312156116e457600080fd5b6116ed83611506565b91506116fb60208401611506565b90509250929050565b600181811c9082168061171857607f821691505b60208210810361173857634e487b7160e01b600052602260045260246000fd5b50919050565b6000815161175081856020860161148a565b9290920192915050565b7f3c73766720786d6c6e733d22687474703a2f2f7777772e77332e6f72672f323081527f30302f73766722207072657365727665417370656374526174696f3d22784d6960208201527f6e594d696e206d656574222076696577426f783d223020302033353020333530604082015261111f60f11b60608201527f3c7374796c653e2e62617365207b2066696c6c3a2077686974653b20666f6e7460628201527f2d66616d696c793a2073657269663b20666f6e742d73697a653a20313470783b608282015269103e9e17b9ba3cb6329f60b11b60a28201527f3c726563742077696474683d223130302522206865696768743d22313030252260ac8201526f103334b6361e91313630b1b59110179f60811b60cc8201527f3c7465787420783d223530252220793d223430252220636c6173733d2262617360dc8201527f652220646f6d696e616e742d626173656c696e653d226d6964646c652220746560fc820152723c3a16b0b731b437b91e9136b4b2323632911f60691b61011c820152662bb0b93934b7b960c91b61012f82015260006109b16119a061190861199a61198661191b610136880184565b661e17ba32bc3a1f60c91b815260070190565b7f3c7465787420783d223530252220793d223530252220636c6173733d2262617381527f652220646f6d696e616e742d626173656c696e653d226d6964646c65222074656020820152723c3a16b0b731b437b91e9136b4b2323632911f60691b604082015260530190565b6702632bb32b6399d160c51b815260080190565b8661173e565b651e17b9bb339f60d11b815260060190565b7f646174613a696d6167652f7376672b786d6c3b6261736536342c0000000000008152600082516119ea81601a85016020870161148a565b91909101601a0192915050565b6020808252602d908201527f4552433732313a2063616c6c6572206973206e6f7420746f6b656e206f776e6560408201526c1c881bdc88185c1c1c9bdd9959609a1b606082015260800190565b634e487b7160e01b600052601160045260246000fd5b808201808211156102ea576102ea611a44565b607b60f81b81527f226e616d65223a2022496469616e6320426174746c6573202300000000000000600182015260008351611aaf81601a85016020880161148a565b61088b60f21b601a918401918201527f226465736372697074696f6e223a2022426174746c6573206f6e20696469616e601c8201526218c88b60ea1b603c820152691134b6b0b3b2911d101160b11b603f8201528351611b1681604984016020880161148a565b601160f91b60499290910191820152607d60f81b604a820152604b01949350505050565b7f646174613a6170706c69636174696f6e2f6a736f6e3b6261736536342c000000815260008251611b7281601d85016020870161148a565b91909101601d0192915050565b60008351611b9181846020880161148a565b835190830190611ba581836020880161148a565b01949350505050565b600082611bcb57634e487b7160e01b600052601260045260246000fd5b500490565b80820281158282048414176102ea576102ea611a44565b601f8211156104be57600081815260208120601f850160051c81016020861015611c0e5750805b601f850160051c820191505b81811015611c2d57828155600101611c1a565b505050505050565b815167ffffffffffffffff811115611c4f57611c4f6115df565b611c6381611c5d8454611704565b84611be7565b602080601f831160018114611c985760008415611c805750858301515b600019600386901b1c1916600185901b178555611c2d565b600085815260208120601f198616915b82811015611cc757888601518255948401946001909101908401611ca8565b5085821015611ce55787850151600019600388901b60f8161c191681555b5050505050600190811b01905550565b60208082526025908201527f4552433732313a207472616e736665722066726f6d20696e636f72726563742060408201526437bbb732b960d91b606082015260800190565b60208082526032908201527f4552433732313a207472616e7366657220746f206e6f6e20455243373231526560408201527131b2b4bb32b91034b6b83632b6b2b73a32b960711b606082015260800190565b6001600160a01b0385811682528416602082015260408101839052608060608201819052600090611dbf908301846114ae565b9695505050505050565b600060208284031215611ddb57600080fd5b81516109b18161145756fe4142434445464748494a4b4c4d4e4f505152535455565758595a6162636465666768696a6b6c6d6e6f707172737475767778797a303132333435363738392b2fa26469706673582212204bd4db67f3641f7768c1f2818b874e855670f4f38e8361f7c33edcf6ba05774f64736f6c63430008130033",
    "sourcePath": "/home/dennyswamb/Desktop/.blockchain/.2text solidity/IdiancBattlesNFT/contracts/IdiancBattles.sol",
    "compiler": {
        "name": "solc",
        "version": "0.8.19+commit.7dd6d404"
    },
    "functionHashes": {
        "approve(address,uint256)": "095ea7b3",
        "balanceOf(address)": "70a08231",
        "generateCharacter(uint256)": "0daefed5",
        "getApproved(uint256)": "081812fc",
        "getLevels(uint256)": "f43785f9",
        "getTokenURI(uint256)": "3bb3a24d",
        "isApprovedForAll(address,address)": "e985e9c5",
        "mint()": "1249c58b",
        "name()": "06fdde03",
        "ownerOf(uint256)": "6352211e",
        "safeTransferFrom(address,address,uint256)": "42842e0e",
        "safeTransferFrom(address,address,uint256,bytes)": "b88d4fde",
        "setApprovalForAll(address,bool)": "a22cb465",
        "supportsInterface(bytes4)": "01ffc9a7",
        "symbol()": "95d89b41",
        "tokenIdToLevels(uint256)": "c6a4342f",
        "tokenURI(uint256)": "c87b56dd",
        "train(uint256)": "368004ed",
        "transferFrom(address,address,uint256)": "23b872dd"
    },
    "gasEstimates": {
        "creation": {
            "codeDepositCost": "1554400",
            "executionCost": "infinite",
            "totalCost": "infinite"
        },
        "external": {
            "approve(address,uint256)": "infinite",
            "balanceOf(address)": "2656",
            "generateCharacter(uint256)": "infinite",
            "getApproved(uint256)": "4792",
            "getLevels(uint256)": "infinite",
            "getTokenURI(uint256)": "infinite",
            "isApprovedForAll(address,address)": "infinite",
            "mint()": "infinite",
            "name()": "infinite",
            "ownerOf(uint256)": "2583",
            "safeTransferFrom(address,address,uint256)": "infinite",
            "safeTransferFrom(address,address,uint256,bytes)": "infinite",
            "setApprovalForAll(address,bool)": "26794",
            "supportsInterface(bytes4)": "infinite",
            "symbol()": "infinite",
            "tokenIdToLevels(uint256)": "2482",
            "tokenURI(uint256)": "infinite",
            "train(uint256)": "infinite",
            "transferFrom(address,address,uint256)": "infinite"
        }
    }
}